{
  "_format": "hh-sol-artifact-1",
  "contractName": "Unilearn",
  "sourceName": "contracts/Unilearn.sol",
  "abi": [
    {
      "inputs": [],
      "stateMutability": "nonpayable",
      "type": "constructor"
    },
    {
      "inputs": [
        {
          "internalType": "string",
          "name": "nftId",
          "type": "string"
        },
        {
          "internalType": "string",
          "name": "answers",
          "type": "string"
        }
      ],
      "name": "createQuiz",
      "outputs": [],
      "stateMutability": "payable",
      "type": "function"
    },
    {
      "inputs": [
        {
          "internalType": "address",
          "name": "",
          "type": "address"
        }
      ],
      "name": "creatorsWhitelist",
      "outputs": [
        {
          "internalType": "bool",
          "name": "",
          "type": "bool"
        }
      ],
      "stateMutability": "view",
      "type": "function"
    },
    {
      "inputs": [],
      "name": "getAllQuizzes",
      "outputs": [
        {
          "components": [
            {
              "internalType": "string",
              "name": "nftId",
              "type": "string"
            },
            {
              "internalType": "string",
              "name": "answers",
              "type": "string"
            },
            {
              "internalType": "address",
              "name": "submitter",
              "type": "address"
            },
            {
              "internalType": "address[]",
              "name": "completed",
              "type": "address[]"
            },
            {
              "internalType": "bool",
              "name": "exists",
              "type": "bool"
            }
          ],
          "internalType": "struct Unilearn.Quiz[]",
          "name": "",
          "type": "tuple[]"
        }
      ],
      "stateMutability": "view",
      "type": "function"
    }
  ],
  "bytecode": "0x608060405234801561001057600080fd5b50600160008190555033600360006101000a81548173ffffffffffffffffffffffffffffffffffffffff021916908373ffffffffffffffffffffffffffffffffffffffff1602179055506112ab806100696000396000f3fe6080604052600436106100345760003560e01c80636a4af0fa14610039578063d6c9406514610064578063f3775a5614610080575b600080fd5b34801561004557600080fd5b5061004e6100bd565b60405161005b9190610ea1565b60405180910390f35b61007e60048036038101906100799190610bc4565b61044f565b005b34801561008c57600080fd5b506100a760048036038101906100a29190610b9b565b610823565b6040516100b49190610ec3565b60405180910390f35b60606100fd6040518060400160405280601781526020017f676574416c6c5175697a7a65732069732063616c6c6564000000000000000000815250610843565b600061010960016108dc565b905060006001905060008267ffffffffffffffff811115610153577f4e487b7100000000000000000000000000000000000000000000000000000000600052604160045260246000fd5b60405190808252806020026020018201604052801561018c57816020015b6101796109c8565b8152602001906001900390816101715790505b5090506000600190505b8381101561044557600560008281526020019081526020016000206040518060a00160405290816000820180546101cc906110fc565b80601f01602080910402602001604051908101604052809291908181526020018280546101f8906110fc565b80156102455780601f1061021a57610100808354040283529160200191610245565b820191906000526020600020905b81548152906001019060200180831161022857829003601f168201915b5050505050815260200160018201805461025e906110fc565b80601f016020809104026020016040519081016040528092919081815260200182805461028a906110fc565b80156102d75780601f106102ac576101008083540402835291602001916102d7565b820191906000526020600020905b8154815290600101906020018083116102ba57829003601f168201915b505050505081526020016002820160009054906101000a900473ffffffffffffffffffffffffffffffffffffffff1673ffffffffffffffffffffffffffffffffffffffff1673ffffffffffffffffffffffffffffffffffffffff168152602001600382018054806020026020016040519081016040528092919081815260200182805480156103bb57602002820191906000526020600020905b8160009054906101000a900473ffffffffffffffffffffffffffffffffffffffff1673ffffffffffffffffffffffffffffffffffffffff1681526020019060010190808311610371575b505050505081526020016004820160009054906101000a900460ff161515151581525050828481518110610418577f4e487b7100000000000000000000000000000000000000000000000000000000600052603260045260246000fd5b6020026020010181905250600183610430919061102b565b9250808061043d9061112e565b915050610196565b5080935050505090565b600460003373ffffffffffffffffffffffffffffffffffffffff1673ffffffffffffffffffffffffffffffffffffffff16815260200190815260200160002060009054906101000a900460ff166104db576040517f08c379a00000000000000000000000000000000000000000000000000000000081526004016104d290610f4c565b60405180910390fd5b60026000541415610521576040517f08c379a000000000000000000000000000000000000000000000000000000000815260040161051890610f6c565b60405180910390fd5b60026000819055506105f16040518060400160405280601b81526020017f6372656174655175697a2069732063616c6c65642077697468203a000000000081525085858080601f016020809104026020016040519081016040528093929190818152602001838380828437600081840152601f19601f8201169050808301925050505050505084848080601f016020809104026020016040519081016040528093929190818152602001838380828437600081840152601f19601f820116905080830192505050505050506108ea565b6105fb6001610989565b600061060760016108dc565b90506040518060a0016040528086868080601f016020809104026020016040519081016040528093929190818152602001838380828437600081840152601f19601f82011690508083019250505050505050815260200184848080601f016020809104026020016040519081016040528093929190818152602001838380828437600081840152601f19601f8201169050808301925050505050505081526020013373ffffffffffffffffffffffffffffffffffffffff168152602001600067ffffffffffffffff811115610705577f4e487b7100000000000000000000000000000000000000000000000000000000600052604160045260246000fd5b6040519080825280602002602001820160405280156107335781602001602082028036833780820191505090505b5081526020016001151581525060056000838152602001908152602001600020600082015181600001908051906020019061076f929190610a0f565b50602082015181600101908051906020019061078c929190610a0f565b5060408201518160020160006101000a81548173ffffffffffffffffffffffffffffffffffffffff021916908373ffffffffffffffffffffffffffffffffffffffff16021790555060608201518160030190805190602001906107f0929190610a95565b5060808201518160040160006101000a81548160ff02191690831515021790555090505050600160008190555050505050565b60046020528060005260406000206000915054906101000a900460ff1681565b6108d9816040516024016108579190610ede565b6040516020818303038152906040527f41304fac000000000000000000000000000000000000000000000000000000007bffffffffffffffffffffffffffffffffffffffffffffffffffffffff19166020820180517bffffffffffffffffffffffffffffffffffffffffffffffffffffffff838183161783525050505061099f565b50565b600081600001549050919050565b61098483838360405160240161090293929190610f00565b6040516020818303038152906040527f2ced7cef000000000000000000000000000000000000000000000000000000007bffffffffffffffffffffffffffffffffffffffffffffffffffffffff19166020820180517bffffffffffffffffffffffffffffffffffffffffffffffffffffffff838183161783525050505061099f565b505050565b6001816000016000828254019250508190555050565b60008151905060006a636f6e736f6c652e6c6f679050602083016000808483855afa5050505050565b6040518060a001604052806060815260200160608152602001600073ffffffffffffffffffffffffffffffffffffffff168152602001606081526020016000151581525090565b828054610a1b906110fc565b90600052602060002090601f016020900481019282610a3d5760008555610a84565b82601f10610a5657805160ff1916838001178555610a84565b82800160010185558215610a84579182015b82811115610a83578251825591602001919060010190610a68565b5b509050610a919190610b1f565b5090565b828054828255906000526020600020908101928215610b0e579160200282015b82811115610b0d5782518260006101000a81548173ffffffffffffffffffffffffffffffffffffffff021916908373ffffffffffffffffffffffffffffffffffffffff16021790555091602001919060010190610ab5565b5b509050610b1b9190610b1f565b5090565b5b80821115610b38576000816000905550600101610b20565b5090565b600081359050610b4b8161125e565b92915050565b60008083601f840112610b6357600080fd5b8235905067ffffffffffffffff811115610b7c57600080fd5b602083019150836001820283011115610b9457600080fd5b9250929050565b600060208284031215610bad57600080fd5b6000610bbb84828501610b3c565b91505092915050565b60008060008060408587031215610bda57600080fd5b600085013567ffffffffffffffff811115610bf457600080fd5b610c0087828801610b51565b9450945050602085013567ffffffffffffffff811115610c1f57600080fd5b610c2b87828801610b51565b925092505092959194509250565b6000610c458383610c65565b60208301905092915050565b6000610c5d8383610e1d565b905092915050565b610c6e81611081565b82525050565b6000610c7f82610fac565b610c898185610fe7565b9350610c9483610f8c565b8060005b83811015610cc5578151610cac8882610c39565b9750610cb783610fcd565b925050600181019050610c98565b5085935050505092915050565b6000610cdd82610fb7565b610ce78185610ff8565b935083602082028501610cf985610f9c565b8060005b85811015610d355784840389528151610d168582610c51565b9450610d2183610fda565b925060208a01995050600181019050610cfd565b50829750879550505050505092915050565b610d5081611093565b82525050565b610d5f81611093565b82525050565b6000610d7082610fc2565b610d7a8185611009565b9350610d8a8185602086016110c9565b610d93816111d5565b840191505092915050565b6000610da982610fc2565b610db3818561101a565b9350610dc38185602086016110c9565b610dcc816111d5565b840191505092915050565b6000610de460278361101a565b9150610def826111e6565b604082019050919050565b6000610e07601f8361101a565b9150610e1282611235565b602082019050919050565b600060a0830160008301518482036000860152610e3a8282610d65565b91505060208301518482036020860152610e548282610d65565b9150506040830151610e696040860182610c65565b5060608301518482036060860152610e818282610c74565b9150506080830151610e966080860182610d47565b508091505092915050565b60006020820190508181036000830152610ebb8184610cd2565b905092915050565b6000602082019050610ed86000830184610d56565b92915050565b60006020820190508181036000830152610ef88184610d9e565b905092915050565b60006060820190508181036000830152610f1a8186610d9e565b90508181036020830152610f2e8185610d9e565b90508181036040830152610f428184610d9e565b9050949350505050565b60006020820190508181036000830152610f6581610dd7565b9050919050565b60006020820190508181036000830152610f8581610dfa565b9050919050565b6000819050602082019050919050565b6000819050602082019050919050565b600081519050919050565b600081519050919050565b600081519050919050565b6000602082019050919050565b6000602082019050919050565b600082825260208201905092915050565b600082825260208201905092915050565b600082825260208201905092915050565b600082825260208201905092915050565b6000611036826110bf565b9150611041836110bf565b9250827fffffffffffffffffffffffffffffffffffffffffffffffffffffffffffffffff0382111561107657611075611177565b5b828201905092915050565b600061108c8261109f565b9050919050565b60008115159050919050565b600073ffffffffffffffffffffffffffffffffffffffff82169050919050565b6000819050919050565b60005b838110156110e75780820151818401526020810190506110cc565b838111156110f6576000848401525b50505050565b6000600282049050600182168061111457607f821691505b60208210811415611128576111276111a6565b5b50919050565b6000611139826110bf565b91507fffffffffffffffffffffffffffffffffffffffffffffffffffffffffffffffff82141561116c5761116b611177565b5b600182019050919050565b7f4e487b7100000000000000000000000000000000000000000000000000000000600052601160045260246000fd5b7f4e487b7100000000000000000000000000000000000000000000000000000000600052602260045260246000fd5b6000601f19601f8301169050919050565b7f43616c6c6572206d7573742062652077686974656c6973746564207175697a2060008201527f63726561746f7200000000000000000000000000000000000000000000000000602082015250565b7f5265656e7472616e637947756172643a207265656e7472616e742063616c6c00600082015250565b61126781611081565b811461127257600080fd5b5056fea2646970667358221220cb2d9ec0823e4fd648e3830bfe6d071cf22781c084487aecfb16699e4b85c11a64736f6c63430008040033",
  "linkReferences": {},
  "deployedLinkReferences": {}
}