{
  "_format": "hh-sol-artifact-1",
  "contractName": "Unilearn",
  "sourceName": "contracts/Unilearn.sol",
  "abi": [
    {
      "inputs": [],
      "stateMutability": "nonpayable",
      "type": "constructor"
    },
    {
      "inputs": [
        {
          "internalType": "string",
          "name": "nftId",
          "type": "string"
        },
        {
          "internalType": "string",
          "name": "answers",
          "type": "string"
        }
      ],
      "name": "createQuiz",
      "outputs": [],
      "stateMutability": "payable",
      "type": "function"
    },
    {
      "inputs": [
        {
          "internalType": "address",
          "name": "",
          "type": "address"
        }
      ],
      "name": "creatorsWhitelist",
      "outputs": [
        {
          "internalType": "bool",
          "name": "",
          "type": "bool"
        }
      ],
      "stateMutability": "view",
      "type": "function"
    },
    {
      "inputs": [],
      "name": "getAllQuizzes",
      "outputs": [
        {
          "components": [
            {
              "internalType": "string",
              "name": "nftId",
              "type": "string"
            },
            {
              "internalType": "address",
              "name": "submitter",
              "type": "address"
            },
            {
              "internalType": "address[]",
              "name": "completed",
              "type": "address[]"
            },
            {
              "internalType": "bool",
              "name": "exists",
              "type": "bool"
            }
          ],
          "internalType": "struct Unilearn.Quiz[]",
          "name": "",
          "type": "tuple[]"
        }
      ],
      "stateMutability": "view",
      "type": "function"
    },
    {
      "inputs": [
        {
          "internalType": "string",
          "name": "nftId",
          "type": "string"
        },
        {
          "internalType": "string",
          "name": "answers",
          "type": "string"
        }
      ],
      "name": "submitQuiz",
      "outputs": [
        {
          "internalType": "string",
          "name": "",
          "type": "string"
        }
      ],
      "stateMutability": "view",
      "type": "function"
    }
  ],
  "bytecode": "0x608060405234801561001057600080fd5b50600160008190555033600360006101000a81548173ffffffffffffffffffffffffffffffffffffffff021916908373ffffffffffffffffffffffffffffffffffffffff16021790555061136a806100696000396000f3fe60806040526004361061003f5760003560e01c80636a4af0fa14610044578063bcc8dca21461006f578063d6c94065146100ac578063f3775a56146100c8575b600080fd5b34801561005057600080fd5b50610059610105565b6040516100669190610faa565b60405180910390f35b34801561007b57600080fd5b5061009660048036038101906100919190610c8e565b610408565b6040516100a39190610fe7565b60405180910390f35b6100c660048036038101906100c19190610c8e565b61055d565b005b3480156100d457600080fd5b506100ef60048036038101906100ea9190610c65565b61086e565b6040516100fc9190610fcc565b60405180910390f35b60606101456040518060400160405280601781526020017f676574416c6c5175697a7a65732069732063616c6c656400000000000000000081525061088e565b60006101516001610927565b90506000808267ffffffffffffffff811115610196577f4e487b7100000000000000000000000000000000000000000000000000000000600052604160045260246000fd5b6040519080825280602002602001820160405280156101cf57816020015b6101bc610a13565b8152602001906001900390816101b45790505b50905060005b838110156103fe57600560006001836101ee919061112a565b81526020019081526020016000206040518060800160405290816000820180546102179061120a565b80601f01602080910402602001604051908101604052809291908181526020018280546102439061120a565b80156102905780601f1061026557610100808354040283529160200191610290565b820191906000526020600020905b81548152906001019060200180831161027357829003601f168201915b505050505081526020016001820160009054906101000a900473ffffffffffffffffffffffffffffffffffffffff1673ffffffffffffffffffffffffffffffffffffffff1673ffffffffffffffffffffffffffffffffffffffff1681526020016002820180548060200260200160405190810160405280929190818152602001828054801561037457602002820191906000526020600020905b8160009054906101000a900473ffffffffffffffffffffffffffffffffffffffff1673ffffffffffffffffffffffffffffffffffffffff168152602001906001019080831161032a575b505050505081526020016003820160009054906101000a900460ff1615151515815250508284815181106103d1577f4e487b7100000000000000000000000000000000000000000000000000000000600052603260045260246000fd5b60200260200101819052506001836103e9919061112a565b925080806103f69061123c565b9150506101d5565b5080935050505090565b606060006006868660405161041e929190610f91565b908152602001604051809103902080546104379061120a565b80601f01602080910402602001604051908101604052809291908181526020018280546104639061120a565b80156104b05780601f10610485576101008083540402835291602001916104b0565b820191906000526020600020905b81548152906001019060200180831161049357829003601f168201915b5050505050905083836040516104c7929190610f78565b60405180910390208180519060200120141561051b576040518060400160405280602081526020017f436f727265637420416e737765722120436f6e67726174756c6174696f6e7321815250915050610555565b6040518060400160405280601c81526020017f496e636f727265637420416e73776572212054727920616761696e21000000008152509150505b949350505050565b600260005414156105a3576040517f08c379a000000000000000000000000000000000000000000000000000000000815260040161059a90611055565b60405180910390fd5b60026000819055506106736040518060400160405280601b81526020017f6372656174655175697a2069732063616c6c65642077697468203a000000000081525085858080601f016020809104026020016040519081016040528093929190818152602001838380828437600081840152601f19601f8201169050808301925050505050505084848080601f016020809104026020016040519081016040528093929190818152602001838380828437600081840152601f19601f82011690508083019250505050505050610935565b61067d60016109d4565b60006106896001610927565b9050604051806080016040528086868080601f016020809104026020016040519081016040528093929190818152602001838380828437600081840152601f19601f8201169050808301925050505050505081526020013373ffffffffffffffffffffffffffffffffffffffff168152602001600067ffffffffffffffff81111561073d577f4e487b7100000000000000000000000000000000000000000000000000000000600052604160045260246000fd5b60405190808252806020026020018201604052801561076b5781602001602082028036833780820191505090505b508152602001600115158152506005600083815260200190815260200160002060008201518160000190805190602001906107a7929190610a53565b5060208201518160010160006101000a81548173ffffffffffffffffffffffffffffffffffffffff021916908373ffffffffffffffffffffffffffffffffffffffff160217905550604082015181600201908051906020019061080b929190610ad9565b5060608201518160030160006101000a81548160ff021916908315150217905550905050828260068787604051610843929190610f91565b9081526020016040518091039020919061085e929190610b63565b5050600160008190555050505050565b60046020528060005260406000206000915054906101000a900460ff1681565b610924816040516024016108a29190610fe7565b6040516020818303038152906040527f41304fac000000000000000000000000000000000000000000000000000000007bffffffffffffffffffffffffffffffffffffffffffffffffffffffff19166020820180517bffffffffffffffffffffffffffffffffffffffffffffffffffffffff83818316178352505050506109ea565b50565b600081600001549050919050565b6109cf83838360405160240161094d93929190611009565b6040516020818303038152906040527f2ced7cef000000000000000000000000000000000000000000000000000000007bffffffffffffffffffffffffffffffffffffffffffffffffffffffff19166020820180517bffffffffffffffffffffffffffffffffffffffffffffffffffffffff83818316178352505050506109ea565b505050565b6001816000016000828254019250508190555050565b60008151905060006a636f6e736f6c652e6c6f679050602083016000808483855afa5050505050565b604051806080016040528060608152602001600073ffffffffffffffffffffffffffffffffffffffff168152602001606081526020016000151581525090565b828054610a5f9061120a565b90600052602060002090601f016020900481019282610a815760008555610ac8565b82601f10610a9a57805160ff1916838001178555610ac8565b82800160010185558215610ac8579182015b82811115610ac7578251825591602001919060010190610aac565b5b509050610ad59190610be9565b5090565b828054828255906000526020600020908101928215610b52579160200282015b82811115610b515782518260006101000a81548173ffffffffffffffffffffffffffffffffffffffff021916908373ffffffffffffffffffffffffffffffffffffffff16021790555091602001919060010190610af9565b5b509050610b5f9190610be9565b5090565b828054610b6f9061120a565b90600052602060002090601f016020900481019282610b915760008555610bd8565b82601f10610baa57803560ff1916838001178555610bd8565b82800160010185558215610bd8579182015b82811115610bd7578235825591602001919060010190610bbc565b5b509050610be59190610be9565b5090565b5b80821115610c02576000816000905550600101610bea565b5090565b600081359050610c158161131d565b92915050565b60008083601f840112610c2d57600080fd5b8235905067ffffffffffffffff811115610c4657600080fd5b602083019150836001820283011115610c5e57600080fd5b9250929050565b600060208284031215610c7757600080fd5b6000610c8584828501610c06565b91505092915050565b60008060008060408587031215610ca457600080fd5b600085013567ffffffffffffffff811115610cbe57600080fd5b610cca87828801610c1b565b9450945050602085013567ffffffffffffffff811115610ce957600080fd5b610cf587828801610c1b565b925092505092959194509250565b6000610d0f8383610d2f565b60208301905092915050565b6000610d278383610f0e565b905092915050565b610d3881611180565b82525050565b6000610d4982611095565b610d5381856110d0565b9350610d5e83611075565b8060005b83811015610d8f578151610d768882610d03565b9750610d81836110b6565b925050600181019050610d62565b5085935050505092915050565b6000610da7826110a0565b610db181856110e1565b935083602082028501610dc385611085565b8060005b85811015610dff5784840389528151610de08582610d1b565b9450610deb836110c3565b925060208a01995050600181019050610dc7565b50829750879550505050505092915050565b610e1a81611192565b82525050565b610e2981611192565b82525050565b6000610e3b83856110f2565b9350610e488385846111c8565b82840190509392505050565b6000610e60838561111f565b9350610e6d8385846111c8565b82840190509392505050565b6000610e84826110ab565b610e8e81856110fd565b9350610e9e8185602086016111d7565b610ea7816112e3565b840191505092915050565b6000610ebd826110ab565b610ec7818561110e565b9350610ed78185602086016111d7565b610ee0816112e3565b840191505092915050565b6000610ef8601f8361110e565b9150610f03826112f4565b602082019050919050565b60006080830160008301518482036000860152610f2b8282610e79565b9150506020830151610f406020860182610d2f565b5060408301518482036040860152610f588282610d3e565b9150506060830151610f6d6060860182610e11565b508091505092915050565b6000610f85828486610e2f565b91508190509392505050565b6000610f9e828486610e54565b91508190509392505050565b60006020820190508181036000830152610fc48184610d9c565b905092915050565b6000602082019050610fe16000830184610e20565b92915050565b600060208201905081810360008301526110018184610eb2565b905092915050565b600060608201905081810360008301526110238186610eb2565b905081810360208301526110378185610eb2565b9050818103604083015261104b8184610eb2565b9050949350505050565b6000602082019050818103600083015261106e81610eeb565b9050919050565b6000819050602082019050919050565b6000819050602082019050919050565b600081519050919050565b600081519050919050565b600081519050919050565b6000602082019050919050565b6000602082019050919050565b600082825260208201905092915050565b600082825260208201905092915050565b600081905092915050565b600082825260208201905092915050565b600082825260208201905092915050565b600081905092915050565b6000611135826111be565b9150611140836111be565b9250827fffffffffffffffffffffffffffffffffffffffffffffffffffffffffffffffff0382111561117557611174611285565b5b828201905092915050565b600061118b8261119e565b9050919050565b60008115159050919050565b600073ffffffffffffffffffffffffffffffffffffffff82169050919050565b6000819050919050565b82818337600083830152505050565b60005b838110156111f55780820151818401526020810190506111da565b83811115611204576000848401525b50505050565b6000600282049050600182168061122257607f821691505b60208210811415611236576112356112b4565b5b50919050565b6000611247826111be565b91507fffffffffffffffffffffffffffffffffffffffffffffffffffffffffffffffff82141561127a57611279611285565b5b600182019050919050565b7f4e487b7100000000000000000000000000000000000000000000000000000000600052601160045260246000fd5b7f4e487b7100000000000000000000000000000000000000000000000000000000600052602260045260246000fd5b6000601f19601f8301169050919050565b7f5265656e7472616e637947756172643a207265656e7472616e742063616c6c00600082015250565b61132681611180565b811461133157600080fd5b5056fea264697066735822122033db3a7d4fbc083c2fda22c1c5a472cf98ac8a72f19900c48bef42bd583e8cc664736f6c63430008040033",
  "linkReferences": {},
  "deployedLinkReferences": {}
}